:020000002B28AB
:10000800FF00030E8301A4000A08A5008A010B1D46
:100018001128A00A0319A10A0B1125088A00240E29
:080028008300FF0E7F0E0900AA
:0E0030008312031323088A00220882000800AE
:10003E0018208A110A128000840AA20A0319A30A40
:08004E00F003031D1F28080048
:10005600831603138701831287018B170B17A001E1
:10006600A1018430831681008B16643083128100CF
:10007600852887140A30FC00BC30FD00FD0B4128A2
:10008600FC0B41280000871064308100AD2807155D
:100096000930FC009730FD00FD0B4F28FC0B4F2864
:1000A60000000000071164308100AD288715083074
:1000B600FC000030FD00FD0B5E28FC0B5E280000F6
:1000C6000000871164308100AD2807160A30FC0055
:1000D6004B30FD00FD0B6D28FC0B6D2807126430BC
:1000E6008100AD2887160830FC00EE30FD00FD0BC0
:1000F6007A28FC0B7A2800008712A001A10164303F
:100106008100AD2800302106031D8B280130200612
:1001160003193C2800302106031D932802302006CF
:1001260003194A2800302106031D9B2803302006A8
:100136000319592800302106031DA3280430200680
:100146000319682800302106031DAB280530200658
:08015600031975283B28AE28AF
:02400E004A2F37
:00000001FF
