:0200000038289E
:0E0006008312031322088A00210882000800DA
:0E0014000030831203138C1A0130F000080034
:10002200831203131A08A000981C19281812181614
:060032002008F0000800A8
:100038008316031398169030831298008316871737
:10004800071383128C1E2B281A08F0002528080095
:1000580003208A110A128000840AA10A0319A20A3D
:08006800F003031D2C28080021
:10007000403083160313990018111C208316860143
:100080008801831288010230FB004530FC00A93052
:10009000FD00FD0B4928FC0B4928FB0B49280000FB
:1000A00000000230FB004530FC00A930FD00FD0BD4
:1000B0005728FC0B5728FB0B5728000000000A208C
:1000C0007008013A031D8A2811207008A3007008E7
:1000D00088000230FB004530FC00A930FD00FD0B1C
:1000E0006F28FC0B6F28FB0B6F2800000000230813
:1000F000313A031D7C2886170230FB004530FC0096
:10010000A930FD00FD0B8228FC0B8228FB0B822806
:080110000000000051288B28BB
:02400E004A2F37
:00000001FF
