:020000003D2899
:10000800FF00030E8301AC000A08AD008A018B12C1
:100018000B1D1B2801308606A20A0319A30AA40A8D
:100028000319A50A22200B119C3081008B162D087C
:0C0038008A002C0E8300FF0E7F0E0900D2
:10004400831203132B082302031D2A282A082202E1
:10005400031C3328043086068610A201A301A401E0
:10006400A50125082106031D392820082406031D9F
:060074003C288614080080
:10007A0083160313860183128601A801A901C830D9
:10008A00AA00AB01C030A000A101A201A301A401F2
:10009A00A501831681019C30831281008B178B1670
:0400AA000B175628B2
:02400E004A2F37
:00000001FF
