:020000004B298A
:0E0006008312031330088A002F0882000800BE
:1000140083120313FB01FA01F9018030F800F10C9B
:10002400F00C031C1E287408F90775080318750FD3
:10003400FA070318FB0A0310F01F26287408FA07AE
:1000440075080318750FFB07FB0CFA0CF90CF80C78
:10005400031C11287B08F3007A08F2007908F100E8
:060064007808F00008001E
:10006A002430FC00B530FD00FD0B3928FC0B392883
:06007A0000000000080078
:1000800083160313981846280000402883123B0863
:0400900099000800CB
:0C00940000000000000000000000080058
:0E00A0000030831203138C1A0130F0000800A8
:1000AE00831203131A08A300981C5F28181218163F
:0600BE002308F000080019
:1000C40083160313981690308312980083168717AB
:1000D400071383128C1E71281A08F0006B2808007D
:1000E40050207008013A031DF0283108333EB9004E
:1000F400572039088400700880003108333E84009A
:100104000008BB0040203808303A031DED28B10137
:10011400B2013408A500A6013508A700A8013608D5
:10012400A900AA013708F000F1017008AB007108BA
:10013400AC003030A502031CA6033030A702031C18
:10014400A8033030A902031CAA033030F002031CB8
:10015400F1037008AB007108AC0070088800250832
:10016400F0002608F100E830F4000330F5000A201E
:100174007008B9007108BA002708F0002808F100D7
:100184006430F4000030F5000A207008B9077108E3
:100194000318013EBA072908F0002A08F1000A30C2
:1001A400F4000030F5000A203908F0073A08031873
:1001B400013EF1072B08F0072C080318013EF10754
:1001C4007008A1007108A2007008A0003130B800C6
:0E01D4003130BB004020B10A0319B20A080006
:1001E2008316031386120612061086100611861154
:1001F2008312861206128611061186100610352009
:10020200352035208614061486164A20861235209B
:1002120086164A208612352086164A2086123520F6
:10022200061086164A208612352086164A20861225
:100232008610861586164A208612352086110614E7
:1002420086164A208612061086164A208612352005
:1002520086164A208612061486164A2086123520F1
:10026200061086164A20861286150615861406146E
:0C02720086164A2086123520241408004D
:10027E0003208A110A128000840AAF0A0319B00AF9
:08028E00F003031D3F290800E5
:1002960083120313B101B201831688018312880108
:1002A600C030831687008B170B17813099001815FD
:0E02B6006220F1209817181672205F29612926
:02400E004A2F37
:00000001FF
