:02000000542882
:10000800FF00030E8301A4000A08A5008A017008F6
:10001800A0000B1D13288B1288098B160B118C1E40
:100028001C2883168C124920FF30880083168C16F2
:1000380083122008F00025088A00240E8300FF0E92
:040048007F0E09001E
:0E004C008312031322088A0021088200080094
:10005A008316031398169030831298008316871715
:10006A00071383128C1E3C281A08F0003628080051
:10007A0026208A110A128000840AA10A0319A20AF8
:08008A00F003031D3D280800EE
:10009200831203131A08A300981C51281812181669
:0600A2002308F000080035
:1000A8008316031386018312860183168701831240
:1000B8008701831681018B018B178B160B178C1602
:1000C8008130990018152D20F6308100A601A7016E
:1000D8008830AA001330AB001830AC001330AD00E4
:1000E800A801A9010B1D9728A60A0319A70AA80A9F
:1000F8000319A90A2B082702031D84282A082602A7
:10010800031C8B288710A601A701A801A9012908AB
:100118002D06031D91282C082806031D94288714F2
:0A0128000B11F630810076289828AC
:02400E004A2F37
:00000001FF
