:020000002D29A8
:10000800FF00030E8301C2000A08C3008A010B1D0A
:100018001128BE0A0319BF0A0B1143088A00420EB1
:080028008300FF0E7F0E0900AA
:10003000831203134708A20000000000A20B1C2833
:020040000800B6
:0E0042008312031328088A0027088200080092
:0E0050000030831203138C1A0130F0000800F8
:10005E0083120313FB01FA01F9018030F800F10C51
:10006E00F00C031C43287408F90775080318750F64
:10007E00FA070318FB0A0310F01F4B287408FA073F
:10008E0075080318750FFB07FB0CFA0CF90CF80C2E
:10009E00031C36287B08F3007A08F2007908F10079
:0600AE007808F0000800D4
:1000B400831203131A08B700981C62281812181622
:0600C4003708F0000800FF
:1000CA0083160313981690308312980083168717A5
:1000DA00071383128C1E74281A08F0006E28080071
:1000EA0021208A110A128000840AA70A0319A80A81
:0800FA00F003031D7528080046
:10010200831203134508F000F1017008C6000130A4
:100112004602031C9128C603FD30C7001820882818
:0A012200FF304405C7001820080054
:10012C0028207008013A031D2C294008313EC400D8
:10013C005A204408840070088000C00A0319C10AC0
:10014C0036082B3A031D2C29C001C1013208A90025
:10015C00AA013308AB00AC013408AD00AE01350880
:10016C00F000F1017008AF007108B0003030A90246
:10017C00031CAA033030AB02031CAC033030AD02BD
:10018C00031CAE033030F002031CF1037008AF0007
:10019C007108B000700888002908F0002A08F100E6
:1001AC00E830F4000330F5002F207008C40071080B
:1001BC00C5002B08F0002C08F1006430F40000306E
:1001CC00F5002F2070084407B80045080318013EBD
:1001DC007107B9002D08F0002E08F1000A30F40068
:1001EC000030F5002F207008B80771080318013E85
:1001FC00B9072F08B80730080318013EB90731308A
:10020C00B6001C293808A0003908A1002C29380890
:10021C00A5003908A6002C293808A3003908A40029
:10022C002C293808BC003908BD002C293108313A7A
:10023C00031908293108323A03190D293108333AC8
:0E024C00031912293108343A03191729080042
:10025A00C93083120313BA000530BB00C930BC0091
:10026A000530BD00C930A3000530A400C930A5007F
:10027A000530A600C930A0000530A100C001C101A7
:10028A00BE01BF01C0308316870083129817181663
:10029A0087018430831681008B170B1781309900F0
:1002AA00181565208B163C30810089298714962001
:1002BA002008C4002108C500812087103C30810035
:1002CA00A929071596202508C4002608C5008120FB
:1002DA0007113C308100A929871596202308C400FC
:1002EA002408C500812087113C308100A9290716FE
:1002FA0096203C08C4003D08C50081200712BE01B3
:10030A00BF013C308100A92900303F06031D8F2917
:10031A0001303E0603195B2900303F06031D972969
:10032A0002303E060319662900303F06031D9F2945
:10033A0003303E060319712900303F06031DA72921
:0C034A0004303E0603197C295A29AA2918
:02400E004A2F37
:00000001FF
