:02000000E428F2
:0C000600000000000000000000000800E6
:100012002430FC00B530FD00FD0B0D28FC0B0D2833
:06002200000000000800D0
:0A0028005330FD00FD0B1628080000
:1000320083120313AF1B1F288611202886152F1B3E
:100042002428061125280615AF1A292886102A28E1
:1000520086142F1A2E2806102F2806142918332842
:10006200061634280612861603208612AF193B287C
:1000720086113C2886152F1940280611412806159D
:10008200AF1845288610462886142F184A280610CD
:100092004B28061429184F280616502806128616D1
:1000A20003208612291C57280920582814200800EA
:1000B2008312031329102E08AF00192029140800F7
:0E00C200831203132B088A002A08820008000C
:1000D000831603139816903083129800831687179F
:1000E000071383128C1E77281A08F0007128080065
:1000F00061208A110A128000840AAA0A0319AB0A35
:08010000F003031D782808003C
:1001080083120313AD012D082C078400000803197E
:1001180095282D082C0784000008AE005920AD0A48
:04012800872808001C
:10012C00831603138612061206108610061186110A
:10013C0083128612061286110611861006100920EB
:10014C00092009208614061486160320861209201D
:10015C008616032086120920861603208612092093
:10016C000610861603208612092086160320861296
:10017C008610861586160320861209208611061411
:10018C008616032086120610861603208612092076
:10019C008616032086120614861603208612092062
:1001AC00061086160320861286150615861406146C
:0C01BC0086160320861209202914080072
:1001C800463083120313A0007530A1006330A200EB
:1001D8006B30A3002030A4004430A5006930A6008D
:1001E8007430A700A801813083169900181568207B
:1001F80096208316860188018312880186012030A3
:10020800AC0084200330FB008A30FC005530FD0030
:10021800FD0B0C29FC0B0C29FB0B0C290000000022
:02022800142997
:02400E004A2F37
:00000001FF
