:020000001628C0
:0E0006008312031321088A00200882000800DC
:1000140003208A110A128000840AA00A0319A10A83
:08002400F003031D0A28080087
:10002C0083160313860183128601831681018B17B5
:10003C008B12F101F2018830F5001330F600F2302A
:10004C00F7001230F800F301F401F630831281004E
:10005C000B1D5928F10A0319F20AF30A0319F40AC1
:10006C0076087202031D3C2875087102031C472890
:10007C0083120313013086068610F101F201F3019D
:10008C00F40174087806031D4D2877087306031DC8
:10009C005428831203130430860686148312031328
:0A00AC000B11F63081002E285A28AF
:02400E004A2F37
:00000001FF
