:020000008A284C
:10000800FF00030E8301B0000A08AF008A017008E0
:10001800A0008B1283168C120B1D45280130831209
:100028008606A40A0319A50AA60A0319A70A003016
:100038002506031D2128C8302406031D26288714F9
:10004800A401A50100302506031D2C280F30240625
:10005800031D2F2887102708273A031D352810303D
:100068002606031D4228A601A7018C1E42287520DA
:100078007008AC007008B100802088090B119C3012
:1000880081008B1683168C1683122008F0002F0827
:0C0098008A00300E8300FF0E7F0E09006E
:0E00A400831203132B088A002A08820008002A
:1000B20083160313981690308312980083168717BD
:1000C200071383128C1E68281A08F00062280800A1
:1000D20052208A110A128000840AAA0A0319AB0A62
:0800E200F003031D692808006A
:1000EA00831203131A08A100981C7D2818121816E7
:0600FA002108F0000800DF
:10010000831603139818862800008028831231086C
:04011000990008004A
:1001140083160313860183128601831687018312D3
:1001240087018316880183128801AD01AE01C830AE
:10013400A800A901C030A200A301A401A501A60141
:10014400A7013330831699001815592083168101AD
:100154008B170B179C308312810083168C168B1619
:04016400B228B328E2
:02400E004A2F37
:00000001FF
